{
  "transactions": [
    {
      "hash": "0x24833a4ba4e11d8449615c96411d5a06558c04fa09ce8c3bdd472caa322d59f8",
      "transactionType": "CALL",
      "contractName": null,
      "contractAddress": "0x779877a7b0d9e8603169ddbd7836e478b4624789",
      "function": "transferAndCall(address,uint256,bytes)",
      "arguments": [
        "0x9DdfaCa8183c41ad55329BdeeD9F6A8d53168B1B",
        "3000000000000000000",
        "0x7948e529e96ad1aca35ef025d90dccfdccf6df190386a8c56657936f3008ea3d"
      ],
      "transaction": {
        "from": "0xf9a17b14c32734319f27fbc910901523e4e75e3c",
        "to": "0x779877a7b0d9e8603169ddbd7836e478b4624789",
        "gas": "0x14cbb",
        "value": "0x0",
        "input": "0x4000aea00000000000000000000000009ddfaca8183c41ad55329bdeed9f6a8d53168b1b00000000000000000000000000000000000000000000000029a2241af62c0000000000000000000000000000000000000000000000000000000000000000006000000000000000000000000000000000000000000000000000000000000000207948e529e96ad1aca35ef025d90dccfdccf6df190386a8c56657936f3008ea3d",
        "nonce": "0x15",
        "chainId": "0xaa36a7"
      },
      "additionalContracts": [],
      "isFixedGasLimit": false
    }
  ],
  "receipts": [
    {
      "status": "0x1",
      "cumulativeGasUsed": "0xff5a9f",
      "logs": [
        {
          "address": "0x779877a7b0d9e8603169ddbd7836e478b4624789",
          "topics": [
            "0xddf252ad1be2c89b69c2b068fc378daa952ba7f163c4a11628f55a4df523b3ef",
            "0x000000000000000000000000f9a17b14c32734319f27fbc910901523e4e75e3c",
            "0x0000000000000000000000009ddfaca8183c41ad55329bdeed9f6a8d53168b1b"
          ],
          "data": "0x00000000000000000000000000000000000000000000000029a2241af62c0000",
          "blockHash": "0x19102f6bf17b9ae9be89156d741bce678a3671a29b18027cada57c84b71efd4b",
          "blockNumber": "0x8b8c06",
          "blockTimestamp": "0x68bc0fe0",
          "transactionHash": "0x24833a4ba4e11d8449615c96411d5a06558c04fa09ce8c3bdd472caa322d59f8",
          "transactionIndex": "0x58",
          "logIndex": "0xbd",
          "removed": false
        },
        {
          "address": "0x779877a7b0d9e8603169ddbd7836e478b4624789",
          "topics": [
            "0xe19260aff97b920c7df27010903aeb9c8d2be5d310a2c67824cf3f15396e4c16",
            "0x000000000000000000000000f9a17b14c32734319f27fbc910901523e4e75e3c",
            "0x0000000000000000000000009ddfaca8183c41ad55329bdeed9f6a8d53168b1b"
          ],
          "data": "0x00000000000000000000000000000000000000000000000029a2241af62c0000000000000000000000000000000000000000000000000000000000000000004000000000000000000000000000000000000000000000000000000000000000207948e529e96ad1aca35ef025d90dccfdccf6df190386a8c56657936f3008ea3d",
          "blockHash": "0x19102f6bf17b9ae9be89156d741bce678a3671a29b18027cada57c84b71efd4b",
          "blockNumber": "0x8b8c06",
          "blockTimestamp": "0x68bc0fe0",
          "transactionHash": "0x24833a4ba4e11d8449615c96411d5a06558c04fa09ce8c3bdd472caa322d59f8",
          "transactionIndex": "0x58",
          "logIndex": "0xbe",
          "removed": false
        },
        {
          "address": "0x9ddfaca8183c41ad55329bdeed9f6a8d53168b1b",
          "topics": [
            "0x1ced9348ff549fceab2ac57cd3a9de38edaaab274b725ee82c23e8fc8c4eec7a",
            "0x7948e529e96ad1aca35ef025d90dccfdccf6df190386a8c56657936f3008ea3d"
          ],
          "data": "0x0000000000000000000000000000000000000000000000004563918244f400000000000000000000000000000000000000000000000000006f05b59d3b200000",
          "blockHash": "0x19102f6bf17b9ae9be89156d741bce678a3671a29b18027cada57c84b71efd4b",
          "blockNumber": "0x8b8c06",
          "blockTimestamp": "0x68bc0fe0",
          "transactionHash": "0x24833a4ba4e11d8449615c96411d5a06558c04fa09ce8c3bdd472caa322d59f8",
          "transactionIndex": "0x58",
          "logIndex": "0xbf",
          "removed": false
        }
      ],
      "logsBloom": "0x00000004000000000000000000000000000000000020000000000000020000000000000000000000000000000000000000000000000000000000000000000000000000000000000000000008001000000000000000000100000020000020000008000000000000000000000000000000000000000000000000000010000040000000000000000000000000010000800000000820000000000000008000000000000000000000000000000000010000000000000000000000000004000000000000000002000000000000000000000000000000000080000100000000000000000010000000000000800000000000000002000000000000000000000000000000",
      "type": "0x2",
      "transactionHash": "0x24833a4ba4e11d8449615c96411d5a06558c04fa09ce8c3bdd472caa322d59f8",
      "transactionIndex": "0x58",
      "blockHash": "0x19102f6bf17b9ae9be89156d741bce678a3671a29b18027cada57c84b71efd4b",
      "blockNumber": "0x8b8c06",
      "gasUsed": "0xf0e5",
      "effectiveGasPrice": "0x3844eb",
      "from": "0xf9a17b14c32734319f27fbc910901523e4e75e3c",
      "to": "0x779877a7b0d9e8603169ddbd7836e478b4624789",
      "contractAddress": null
    }
  ],
  "libraries": [],
  "pending": [],
  "returns": {},
  "timestamp": 1757155298,
  "chain": 11155111,
  "commit": null
}